{
  "_format": "hh3-artifact-1",
  "contractName": "Presale",
  "sourceName": "contracts/preSale.sol",
  "abi": [
    {
      "inputs": [
        {
          "internalType": "address",
          "name": "_saleToken",
          "type": "address"
        },
        {
          "internalType": "address",
          "name": "_usdt",
          "type": "address"
        },
        {
          "internalType": "address",
          "name": "_usdc",
          "type": "address"
        },
        {
          "internalType": "address",
          "name": "_priceFeed",
          "type": "address"
        }
      ],
      "stateMutability": "nonpayable",
      "type": "constructor"
    },
    {
      "inputs": [
        {
          "internalType": "address",
          "name": "owner",
          "type": "address"
        }
      ],
      "name": "OwnableInvalidOwner",
      "type": "error"
    },
    {
      "inputs": [
        {
          "internalType": "address",
          "name": "account",
          "type": "address"
        }
      ],
      "name": "OwnableUnauthorizedAccount",
      "type": "error"
    },
    {
      "inputs": [],
      "name": "ReentrancyGuardReentrantCall",
      "type": "error"
    },
    {
      "inputs": [
        {
          "internalType": "address",
          "name": "token",
          "type": "address"
        }
      ],
      "name": "SafeERC20FailedOperation",
      "type": "error"
    },
    {
      "anonymous": false,
      "inputs": [
        {
          "indexed": true,
          "internalType": "address",
          "name": "owner",
          "type": "address"
        },
        {
          "indexed": false,
          "internalType": "uint256",
          "name": "amount",
          "type": "uint256"
        }
      ],
      "name": "FundsWithdrawn",
      "type": "event"
    },
    {
      "anonymous": false,
      "inputs": [
        {
          "indexed": true,
          "internalType": "address",
          "name": "previousOwner",
          "type": "address"
        },
        {
          "indexed": true,
          "internalType": "address",
          "name": "newOwner",
          "type": "address"
        }
      ],
      "name": "OwnershipTransferred",
      "type": "event"
    },
    {
      "anonymous": false,
      "inputs": [
        {
          "indexed": false,
          "internalType": "uint8",
          "name": "roundIndex",
          "type": "uint8"
        },
        {
          "indexed": false,
          "internalType": "uint256",
          "name": "price",
          "type": "uint256"
        }
      ],
      "name": "RoundStarted",
      "type": "event"
    },
    {
      "anonymous": false,
      "inputs": [
        {
          "indexed": true,
          "internalType": "address",
          "name": "buyer",
          "type": "address"
        },
        {
          "indexed": false,
          "internalType": "uint256",
          "name": "amount",
          "type": "uint256"
        },
        {
          "indexed": false,
          "internalType": "uint256",
          "name": "cost",
          "type": "uint256"
        },
        {
          "indexed": false,
          "internalType": "string",
          "name": "currency",
          "type": "string"
        }
      ],
      "name": "TokensPurchased",
      "type": "event"
    },
    {
      "inputs": [],
      "name": "buyWithETH",
      "outputs": [],
      "stateMutability": "payable",
      "type": "function"
    },
    {
      "inputs": [
        {
          "internalType": "uint256",
          "name": "_usdcAmount",
          "type": "uint256"
        }
      ],
      "name": "buyWithUSDC",
      "outputs": [],
      "stateMutability": "nonpayable",
      "type": "function"
    },
    {
      "inputs": [
        {
          "internalType": "uint256",
          "name": "_usdtAmount",
          "type": "uint256"
        }
      ],
      "name": "buyWithUSDT",
      "outputs": [],
      "stateMutability": "nonpayable",
      "type": "function"
    },
    {
      "inputs": [],
      "name": "currentRoundIndex",
      "outputs": [
        {
          "internalType": "uint8",
          "name": "",
          "type": "uint8"
        }
      ],
      "stateMutability": "view",
      "type": "function"
    },
    {
      "inputs": [],
      "name": "getLatestETHPrice",
      "outputs": [
        {
          "internalType": "uint256",
          "name": "",
          "type": "uint256"
        }
      ],
      "stateMutability": "view",
      "type": "function"
    },
    {
      "inputs": [],
      "name": "getTokensAmountPerETH",
      "outputs": [
        {
          "internalType": "uint256",
          "name": "",
          "type": "uint256"
        }
      ],
      "stateMutability": "view",
      "type": "function"
    },
    {
      "inputs": [],
      "name": "owner",
      "outputs": [
        {
          "internalType": "address",
          "name": "",
          "type": "address"
        }
      ],
      "stateMutability": "view",
      "type": "function"
    },
    {
      "inputs": [],
      "name": "pauseRound",
      "outputs": [],
      "stateMutability": "nonpayable",
      "type": "function"
    },
    {
      "inputs": [],
      "name": "priceFeed",
      "outputs": [
        {
          "internalType": "contract AggregatorV3Interface",
          "name": "",
          "type": "address"
        }
      ],
      "stateMutability": "view",
      "type": "function"
    },
    {
      "inputs": [
        {
          "internalType": "address",
          "name": "",
          "type": "address"
        }
      ],
      "name": "purchasedTokens",
      "outputs": [
        {
          "internalType": "uint256",
          "name": "",
          "type": "uint256"
        }
      ],
      "stateMutability": "view",
      "type": "function"
    },
    {
      "inputs": [],
      "name": "renounceOwnership",
      "outputs": [],
      "stateMutability": "nonpayable",
      "type": "function"
    },
    {
      "inputs": [
        {
          "internalType": "uint8",
          "name": "",
          "type": "uint8"
        }
      ],
      "name": "rounds",
      "outputs": [
        {
          "internalType": "uint256",
          "name": "price",
          "type": "uint256"
        },
        {
          "internalType": "uint256",
          "name": "totalSold",
          "type": "uint256"
        },
        {
          "internalType": "uint256",
          "name": "cap",
          "type": "uint256"
        },
        {
          "internalType": "bool",
          "name": "isActive",
          "type": "bool"
        }
      ],
      "stateMutability": "view",
      "type": "function"
    },
    {
      "inputs": [],
      "name": "saleToken",
      "outputs": [
        {
          "internalType": "contract IERC20",
          "name": "",
          "type": "address"
        }
      ],
      "stateMutability": "view",
      "type": "function"
    },
    {
      "inputs": [
        {
          "internalType": "uint8",
          "name": "_round",
          "type": "uint8"
        },
        {
          "internalType": "uint256",
          "name": "_price",
          "type": "uint256"
        }
      ],
      "name": "startRound",
      "outputs": [],
      "stateMutability": "nonpayable",
      "type": "function"
    },
    {
      "inputs": [],
      "name": "totalTokensSold",
      "outputs": [
        {
          "internalType": "uint256",
          "name": "",
          "type": "uint256"
        }
      ],
      "stateMutability": "view",
      "type": "function"
    },
    {
      "inputs": [
        {
          "internalType": "address",
          "name": "newOwner",
          "type": "address"
        }
      ],
      "name": "transferOwnership",
      "outputs": [],
      "stateMutability": "nonpayable",
      "type": "function"
    },
    {
      "inputs": [],
      "name": "usdc",
      "outputs": [
        {
          "internalType": "contract IERC20",
          "name": "",
          "type": "address"
        }
      ],
      "stateMutability": "view",
      "type": "function"
    },
    {
      "inputs": [],
      "name": "usdt",
      "outputs": [
        {
          "internalType": "contract IERC20",
          "name": "",
          "type": "address"
        }
      ],
      "stateMutability": "view",
      "type": "function"
    },
    {
      "inputs": [
        {
          "internalType": "address",
          "name": "_token",
          "type": "address"
        }
      ],
      "name": "withdrawFunds",
      "outputs": [],
      "stateMutability": "nonpayable",
      "type": "function"
    }
  ],
  "bytecode": "0x608060405234801561000f575f5ffd5b5060405161140338038061140383398101604081905261002e91610438565b338061005357604051631e4fbdf760e01b81525f600482015260240160405180910390fd5b61005c816103ce565b506001808055600280546001600160a01b03199081166001600160a01b0397881617825560038054821696881696909617865560048054821695881695909517855560058054909116939096169290921790945560408051608080820183525f80835260208084018281526a295be96e6406697200000085870181815260608088018681528d8752600680875298517f3e5fec24aa4dc4e5aee2e025e51e1392c72a2500577559fae9665c6d52bd6a315593517f3e5fec24aa4dc4e5aee2e025e51e1392c72a2500577559fae9665c6d52bd6a325590517f3e5fec24aa4dc4e5aee2e025e51e1392c72a2500577559fae9665c6d52bd6a335591517f3e5fec24aa4dc4e5aee2e025e51e1392c72a2500577559fae9665c6d52bd6a34805460ff1990811692151592909217905587518087018952858152808501868152818a018481528286018881529b885289875291517f8819ef417987f8ae7a81f42cdfb18815282fe989326fbff903d13cf0e03ace2955517f8819ef417987f8ae7a81f42cdfb18815282fe989326fbff903d13cf0e03ace2a55517f8819ef417987f8ae7a81f42cdfb18815282fe989326fbff903d13cf0e03ace2b5597517f8819ef417987f8ae7a81f42cdfb18815282fe989326fbff903d13cf0e03ace2c80548a16911515919091179055865180860188528481528084018581528189018381528285018781529c875288865291517f75f96ab15d697e93042dc45b5c896c4b27e89bb6eaf39475c5c371cb2513f7d255517f75f96ab15d697e93042dc45b5c896c4b27e89bb6eaf39475c5c371cb2513f7d355517f75f96ab15d697e93042dc45b5c896c4b27e89bb6eaf39475c5c371cb2513f7d45598517f75f96ab15d697e93042dc45b5c896c4b27e89bb6eaf39475c5c371cb2513f7d5805489169115159190911790558551938401865282845283820183815295840198895283018281529690915291909152517fc5069e24aaadb2addc3e52e868fcf3f4f8acf5a87e24300992fd4540c2a87eed55517fc5069e24aaadb2addc3e52e868fcf3f4f8acf5a87e24300992fd4540c2a87eee5591517fc5069e24aaadb2addc3e52e868fcf3f4f8acf5a87e24300992fd4540c2a87eef55517fc5069e24aaadb2addc3e52e868fcf3f4f8acf5a87e24300992fd4540c2a87ef080548316911515919091179055600780549091169091179055610489565b5f80546001600160a01b038381166001600160a01b0319831681178455604051919092169283917f8be0079c531659141344cd1fd0a4f28419497f9722a3daafe3b4186f6b6457e09190a35050565b80516001600160a01b0381168114610433575f5ffd5b919050565b5f5f5f5f6080858703121561044b575f5ffd5b6104548561041d565b93506104626020860161041d565b92506104706040860161041d565b915061047e6060860161041d565b905092959194509250565b610f6d806104965f395ff3fe608060405260043610610110575f3560e01c80636896ef4b1161009d578063a7c6016011610062578063a7c601601461030c578063aeccf7351461032b578063e29a00df1461034a578063e985e3671461035e578063f2fde38b1461037d575f5ffd5b80636896ef4b1461027e578063715018a6146102a9578063741bef1a146102bd578063777e0d86146102dc5780638da5cb5b146102f0575f5ffd5b806343434ad0116100e357806343434ad01461018d5780634bae6f3f146101ac5780635d7984d3146101e557806363b201171461024a57806368742da61461025f575f5ffd5b8063150d283d14610114578063156f58af1461011e5780632f48ab7d146101325780633e413bee1461016e575b5f5ffd5b61011c61039c565b005b348015610129575f5ffd5b5061011c6104cf565b34801561013d575f5ffd5b50600354610151906001600160a01b031681565b6040516001600160a01b0390911681526020015b60405180910390f35b348015610179575f5ffd5b50600454610151906001600160a01b031681565b348015610198575f5ffd5b5061011c6101a7366004610d8e565b6104f7565b3480156101b7575f5ffd5b506101d76101c6366004610db6565b60096020525f908152604090205481565b604051908152602001610165565b3480156101f0575f5ffd5b506102286101ff366004610de3565b60066020525f908152604090208054600182015460028301546003909301549192909160ff1684565b6040805194855260208501939093529183015215156060820152608001610165565b348015610255575f5ffd5b506101d760085481565b34801561026a575f5ffd5b5061011c610279366004610db6565b610657565b348015610289575f5ffd5b506007546102979060ff1681565b60405160ff9091168152602001610165565b3480156102b4575f5ffd5b5061011c61077b565b3480156102c8575f5ffd5b50600554610151906001600160a01b031681565b3480156102e7575f5ffd5b506101d761078c565b3480156102fb575f5ffd5b505f546001600160a01b0316610151565b348015610317575f5ffd5b5061011c610326366004610dfc565b61081f565b348015610336575f5ffd5b5061011c610345366004610dfc565b610868565b348015610355575f5ffd5b506101d76108a3565b348015610369575f5ffd5b50600254610151906001600160a01b031681565b348015610388575f5ffd5b5061011c610397366004610db6565b610904565b6103a461093e565b60075460ff9081165f90815260066020526040902060030154166104025760405162461bcd60e51b815260206004820152601060248201526f526f756e64206e6f742061637469766560801b60448201526064015b60405180910390fd5b5f341161043c5760405162461bcd60e51b81526020600482015260086024820152670a6cadcc8408aa8960c31b60448201526064016103f9565b5f61044561078c565b90505f670de0b6b3a764000061045b8334610e27565b6104659190610e44565b60075460ff165f908152600660205260408120549192509061048f83670de0b6b3a7640000610e27565b6104999190610e44565b90506104c181346040518060400160405280600381526020016208aa8960eb1b815250610968565b5050506104cd60018055565b565b6104d7610ae5565b60075460ff165f908152600660205260409020600301805460ff19169055565b6104ff610ae5565b60018260ff1610158015610517575060048260ff1611155b6105535760405162461bcd60e51b815260206004820152600d60248201526c125b9d985b1a59081c9bdd5b99609a1b60448201526064016103f9565b5f81116105965760405162461bcd60e51b815260206004820152601160248201527005072696365206d757374206265203e203607c1b60448201526064016103f9565b60075460ff8381169116148015906105c4575060075460ff9081165f90815260066020526040902060030154165b156105e85760075460ff165f908152600660205260409020600301805460ff191690555b6007805460ff841660ff1991821681179092555f82815260066020908152604091829020858155600301805490931660011790925580519283529082018390527ff7104ec8d70cbee7bb54da17843aa32c11b77c11c6197f005ec8b2b4f5de6958910160405180910390a15050565b61065f610ae5565b6001600160a01b0381166106aa575f80546040516001600160a01b03909116914780156108fc02929091818181858888f193505050501580156106a4573d5f5f3e3d5ffd5b50610738565b806107366106bf5f546001600160a01b031690565b6040516370a0823160e01b81523060048201526001600160a01b038416906370a0823190602401602060405180830381865afa158015610701573d5f5f3e3d5ffd5b505050506040513d601f19601f820116820180604052508101906107259190610e63565b6001600160a01b0384169190610b11565b505b5f80546040519182526001600160a01b0316907feaff4b37086828766ad3268786972c0cd24259d4c87a80f9d3963a3c3d999b0d9060200160405180910390a250565b610783610ae5565b6104cd5f610b75565b5f5f60055f9054906101000a90046001600160a01b03166001600160a01b031663feaf968c6040518163ffffffff1660e01b815260040160a060405180830381865afa1580156107de573d5f5f3e3d5ffd5b505050506040513d601f19601f820116820180604052508101906108029190610e93565b505050915050806402540be4006108199190610e27565b91505090565b61082761093e565b6003546040805180820190915260048152631554d11560e21b602082015261085c9183916001600160a01b0390911690610bc4565b61086560018055565b50565b61087061093e565b6004805460408051808201909152918252635553444360e01b602083015261085c9183916001600160a01b031690610bc4565b60075460ff9081165f908152600660205260408120600301549091166108c857505f90565b5f6108d161078c565b60075460ff165f908152600660205260409020549091506108fa82670de0b6b3a7640000610e27565b6108199190610e44565b61090c610ae5565b6001600160a01b03811661093557604051631e4fbdf760e01b81525f60048201526024016103f9565b61086581610b75565b60026001540361096157604051633ee5aeb560e01b815260040160405180910390fd5b6002600155565b60075460ff165f90815260066020526040902060028101546001820154610990908690610ee1565b11156109d35760405162461bcd60e51b8152602060048201526012602482015271149bdd5b990818d85c08195e18d95959195960721b60448201526064016103f9565b6aa56fa5b99019a5c8000000846008546109ed9190610ee1565b1115610a305760405162461bcd60e51b8152602060048201526012602482015271151bdd185b0818d85c08195e18d95959195960721b60448201526064016103f9565b83816001015f828254610a439190610ee1565b925050819055508360085f828254610a5b9190610ee1565b9091555050335f9081526009602052604081208054869290610a7e908490610ee1565b9091555050600254610a9a906001600160a01b03163386610b11565b336001600160a01b03167fe8e3aa9086f33aa1d89447fc3a792fafabd987374e660b040e31787d68b5fe06858585604051610ad793929190610ef4565b60405180910390a250505050565b5f546001600160a01b031633146104cd5760405163118cdaa760e01b81523360048201526024016103f9565b6040516001600160a01b03838116602483015260448201839052610b7091859182169063a9059cbb906064015b604051602081830303815290604052915060e01b6020820180516001600160e01b038381831617835250505050610cce565b505050565b5f80546001600160a01b038381166001600160a01b0319831681178455604051919092169283917f8be0079c531659141344cd1fd0a4f28419497f9722a3daafe3b4186f6b6457e09190a35050565b60075460ff9081165f9081526006602052604090206003015416610c1d5760405162461bcd60e51b815260206004820152601060248201526f526f756e64206e6f742061637469766560801b60448201526064016103f9565b5f8311610c615760405162461bcd60e51b81526020600482015260126024820152710416d6f756e74206d757374206265203e20360741b60448201526064016103f9565b5f610c718464e8d4a51000610e27565b60075460ff165f9081526006602052604081205491925090610c9b83670de0b6b3a7640000610e27565b610ca59190610e44565b9050610cbc6001600160a01b038516333088610d40565b610cc7818685610968565b5050505050565b5f5f60205f8451602086015f885af180610ced576040513d5f823e3d81fd5b50505f513d91508115610d04578060011415610d11565b6001600160a01b0384163b155b15610d3a57604051635274afe760e01b81526001600160a01b03851660048201526024016103f9565b50505050565b6040516001600160a01b038481166024830152838116604483015260648201839052610d3a9186918216906323b872dd90608401610b3e565b803560ff81168114610d89575f5ffd5b919050565b5f5f60408385031215610d9f575f5ffd5b610da883610d79565b946020939093013593505050565b5f60208284031215610dc6575f5ffd5b81356001600160a01b0381168114610ddc575f5ffd5b9392505050565b5f60208284031215610df3575f5ffd5b610ddc82610d79565b5f60208284031215610e0c575f5ffd5b5035919050565b634e487b7160e01b5f52601160045260245ffd5b8082028115828204841417610e3e57610e3e610e13565b92915050565b5f82610e5e57634e487b7160e01b5f52601260045260245ffd5b500490565b5f60208284031215610e73575f5ffd5b5051919050565b805169ffffffffffffffffffff81168114610d89575f5ffd5b5f5f5f5f5f60a08688031215610ea7575f5ffd5b610eb086610e7a565b60208701516040880151606089015192975090955093509150610ed560808701610e7a565b90509295509295909350565b80820180821115610e3e57610e3e610e13565b838152826020820152606060408201525f82518060608401528060208501608085015e5f608082850101526080601f19601f83011684010191505094935050505056fea264697066735822122057ba8832269db78e7de7ddc13aec7a18b20aef2773075efe712373e5ddc4662964736f6c634300081b0033",
  "linkReferences": {},
  "deployedLinkReferences": {},
  "immutableReferences": {},
  "inputSourceName": "project/contracts/preSale.sol",
  "buildInfoId": "solc-0_8_27-b413d17ff782297a3234684daaa9fd4d7f8eeedb"
}