{
  "_format": "hh3-artifact-1",
  "contractName": "SugarCoin",
  "sourceName": "contracts/sugarCoin.sol",
  "abi": [
    {
      "inputs": [
        {
          "internalType": "address",
          "name": "defaultAdmin",
          "type": "address"
        }
      ],
      "stateMutability": "nonpayable",
      "type": "constructor"
    },
    {
      "inputs": [],
      "name": "AccessControlBadConfirmation",
      "type": "error"
    },
    {
      "inputs": [
        {
          "internalType": "address",
          "name": "account",
          "type": "address"
        },
        {
          "internalType": "bytes32",
          "name": "neededRole",
          "type": "bytes32"
        }
      ],
      "name": "AccessControlUnauthorizedAccount",
      "type": "error"
    },
    {
      "inputs": [
        {
          "internalType": "address",
          "name": "spender",
          "type": "address"
        },
        {
          "internalType": "uint256",
          "name": "allowance",
          "type": "uint256"
        },
        {
          "internalType": "uint256",
          "name": "needed",
          "type": "uint256"
        }
      ],
      "name": "ERC20InsufficientAllowance",
      "type": "error"
    },
    {
      "inputs": [
        {
          "internalType": "address",
          "name": "sender",
          "type": "address"
        },
        {
          "internalType": "uint256",
          "name": "balance",
          "type": "uint256"
        },
        {
          "internalType": "uint256",
          "name": "needed",
          "type": "uint256"
        }
      ],
      "name": "ERC20InsufficientBalance",
      "type": "error"
    },
    {
      "inputs": [
        {
          "internalType": "address",
          "name": "approver",
          "type": "address"
        }
      ],
      "name": "ERC20InvalidApprover",
      "type": "error"
    },
    {
      "inputs": [
        {
          "internalType": "address",
          "name": "receiver",
          "type": "address"
        }
      ],
      "name": "ERC20InvalidReceiver",
      "type": "error"
    },
    {
      "inputs": [
        {
          "internalType": "address",
          "name": "sender",
          "type": "address"
        }
      ],
      "name": "ERC20InvalidSender",
      "type": "error"
    },
    {
      "inputs": [
        {
          "internalType": "address",
          "name": "spender",
          "type": "address"
        }
      ],
      "name": "ERC20InvalidSpender",
      "type": "error"
    },
    {
      "inputs": [],
      "name": "EnforcedPause",
      "type": "error"
    },
    {
      "inputs": [],
      "name": "ExpectedPause",
      "type": "error"
    },
    {
      "anonymous": false,
      "inputs": [
        {
          "indexed": true,
          "internalType": "address",
          "name": "owner",
          "type": "address"
        },
        {
          "indexed": true,
          "internalType": "address",
          "name": "spender",
          "type": "address"
        },
        {
          "indexed": false,
          "internalType": "uint256",
          "name": "value",
          "type": "uint256"
        }
      ],
      "name": "Approval",
      "type": "event"
    },
    {
      "anonymous": false,
      "inputs": [
        {
          "indexed": false,
          "internalType": "address",
          "name": "account",
          "type": "address"
        }
      ],
      "name": "Paused",
      "type": "event"
    },
    {
      "anonymous": false,
      "inputs": [
        {
          "indexed": true,
          "internalType": "bytes32",
          "name": "role",
          "type": "bytes32"
        },
        {
          "indexed": true,
          "internalType": "bytes32",
          "name": "previousAdminRole",
          "type": "bytes32"
        },
        {
          "indexed": true,
          "internalType": "bytes32",
          "name": "newAdminRole",
          "type": "bytes32"
        }
      ],
      "name": "RoleAdminChanged",
      "type": "event"
    },
    {
      "anonymous": false,
      "inputs": [
        {
          "indexed": true,
          "internalType": "bytes32",
          "name": "role",
          "type": "bytes32"
        },
        {
          "indexed": true,
          "internalType": "address",
          "name": "account",
          "type": "address"
        },
        {
          "indexed": true,
          "internalType": "address",
          "name": "sender",
          "type": "address"
        }
      ],
      "name": "RoleGranted",
      "type": "event"
    },
    {
      "anonymous": false,
      "inputs": [
        {
          "indexed": true,
          "internalType": "bytes32",
          "name": "role",
          "type": "bytes32"
        },
        {
          "indexed": true,
          "internalType": "address",
          "name": "account",
          "type": "address"
        },
        {
          "indexed": true,
          "internalType": "address",
          "name": "sender",
          "type": "address"
        }
      ],
      "name": "RoleRevoked",
      "type": "event"
    },
    {
      "anonymous": false,
      "inputs": [],
      "name": "TradingEnabled",
      "type": "event"
    },
    {
      "anonymous": false,
      "inputs": [
        {
          "indexed": true,
          "internalType": "address",
          "name": "from",
          "type": "address"
        },
        {
          "indexed": true,
          "internalType": "address",
          "name": "to",
          "type": "address"
        },
        {
          "indexed": false,
          "internalType": "uint256",
          "name": "value",
          "type": "uint256"
        }
      ],
      "name": "Transfer",
      "type": "event"
    },
    {
      "anonymous": false,
      "inputs": [
        {
          "indexed": false,
          "internalType": "address",
          "name": "account",
          "type": "address"
        }
      ],
      "name": "Unpaused",
      "type": "event"
    },
    {
      "inputs": [],
      "name": "DEFAULT_ADMIN_ROLE",
      "outputs": [
        {
          "internalType": "bytes32",
          "name": "",
          "type": "bytes32"
        }
      ],
      "stateMutability": "view",
      "type": "function"
    },
    {
      "inputs": [],
      "name": "PAUSER_ROLE",
      "outputs": [
        {
          "internalType": "bytes32",
          "name": "",
          "type": "bytes32"
        }
      ],
      "stateMutability": "view",
      "type": "function"
    },
    {
      "inputs": [],
      "name": "TRANSFER_ROLE",
      "outputs": [
        {
          "internalType": "bytes32",
          "name": "",
          "type": "bytes32"
        }
      ],
      "stateMutability": "view",
      "type": "function"
    },
    {
      "inputs": [
        {
          "internalType": "address",
          "name": "owner",
          "type": "address"
        },
        {
          "internalType": "address",
          "name": "spender",
          "type": "address"
        }
      ],
      "name": "allowance",
      "outputs": [
        {
          "internalType": "uint256",
          "name": "",
          "type": "uint256"
        }
      ],
      "stateMutability": "view",
      "type": "function"
    },
    {
      "inputs": [
        {
          "internalType": "address",
          "name": "spender",
          "type": "address"
        },
        {
          "internalType": "uint256",
          "name": "value",
          "type": "uint256"
        }
      ],
      "name": "approve",
      "outputs": [
        {
          "internalType": "bool",
          "name": "",
          "type": "bool"
        }
      ],
      "stateMutability": "nonpayable",
      "type": "function"
    },
    {
      "inputs": [
        {
          "internalType": "address",
          "name": "account",
          "type": "address"
        }
      ],
      "name": "balanceOf",
      "outputs": [
        {
          "internalType": "uint256",
          "name": "",
          "type": "uint256"
        }
      ],
      "stateMutability": "view",
      "type": "function"
    },
    {
      "inputs": [
        {
          "internalType": "uint256",
          "name": "value",
          "type": "uint256"
        }
      ],
      "name": "burn",
      "outputs": [],
      "stateMutability": "nonpayable",
      "type": "function"
    },
    {
      "inputs": [
        {
          "internalType": "address",
          "name": "account",
          "type": "address"
        },
        {
          "internalType": "uint256",
          "name": "value",
          "type": "uint256"
        }
      ],
      "name": "burnFrom",
      "outputs": [],
      "stateMutability": "nonpayable",
      "type": "function"
    },
    {
      "inputs": [],
      "name": "decimals",
      "outputs": [
        {
          "internalType": "uint8",
          "name": "",
          "type": "uint8"
        }
      ],
      "stateMutability": "view",
      "type": "function"
    },
    {
      "inputs": [],
      "name": "enableTrading",
      "outputs": [],
      "stateMutability": "nonpayable",
      "type": "function"
    },
    {
      "inputs": [
        {
          "internalType": "bytes32",
          "name": "role",
          "type": "bytes32"
        }
      ],
      "name": "getRoleAdmin",
      "outputs": [
        {
          "internalType": "bytes32",
          "name": "",
          "type": "bytes32"
        }
      ],
      "stateMutability": "view",
      "type": "function"
    },
    {
      "inputs": [
        {
          "internalType": "bytes32",
          "name": "role",
          "type": "bytes32"
        },
        {
          "internalType": "address",
          "name": "account",
          "type": "address"
        }
      ],
      "name": "grantRole",
      "outputs": [],
      "stateMutability": "nonpayable",
      "type": "function"
    },
    {
      "inputs": [
        {
          "internalType": "bytes32",
          "name": "role",
          "type": "bytes32"
        },
        {
          "internalType": "address",
          "name": "account",
          "type": "address"
        }
      ],
      "name": "hasRole",
      "outputs": [
        {
          "internalType": "bool",
          "name": "",
          "type": "bool"
        }
      ],
      "stateMutability": "view",
      "type": "function"
    },
    {
      "inputs": [],
      "name": "name",
      "outputs": [
        {
          "internalType": "string",
          "name": "",
          "type": "string"
        }
      ],
      "stateMutability": "view",
      "type": "function"
    },
    {
      "inputs": [],
      "name": "pause",
      "outputs": [],
      "stateMutability": "nonpayable",
      "type": "function"
    },
    {
      "inputs": [],
      "name": "paused",
      "outputs": [
        {
          "internalType": "bool",
          "name": "",
          "type": "bool"
        }
      ],
      "stateMutability": "view",
      "type": "function"
    },
    {
      "inputs": [
        {
          "internalType": "bytes32",
          "name": "role",
          "type": "bytes32"
        },
        {
          "internalType": "address",
          "name": "callerConfirmation",
          "type": "address"
        }
      ],
      "name": "renounceRole",
      "outputs": [],
      "stateMutability": "nonpayable",
      "type": "function"
    },
    {
      "inputs": [
        {
          "internalType": "bytes32",
          "name": "role",
          "type": "bytes32"
        },
        {
          "internalType": "address",
          "name": "account",
          "type": "address"
        }
      ],
      "name": "revokeRole",
      "outputs": [],
      "stateMutability": "nonpayable",
      "type": "function"
    },
    {
      "inputs": [
        {
          "internalType": "bytes4",
          "name": "interfaceId",
          "type": "bytes4"
        }
      ],
      "name": "supportsInterface",
      "outputs": [
        {
          "internalType": "bool",
          "name": "",
          "type": "bool"
        }
      ],
      "stateMutability": "view",
      "type": "function"
    },
    {
      "inputs": [],
      "name": "symbol",
      "outputs": [
        {
          "internalType": "string",
          "name": "",
          "type": "string"
        }
      ],
      "stateMutability": "view",
      "type": "function"
    },
    {
      "inputs": [],
      "name": "totalSupply",
      "outputs": [
        {
          "internalType": "uint256",
          "name": "",
          "type": "uint256"
        }
      ],
      "stateMutability": "view",
      "type": "function"
    },
    {
      "inputs": [],
      "name": "tradingEnabled",
      "outputs": [
        {
          "internalType": "bool",
          "name": "",
          "type": "bool"
        }
      ],
      "stateMutability": "view",
      "type": "function"
    },
    {
      "inputs": [
        {
          "internalType": "address",
          "name": "to",
          "type": "address"
        },
        {
          "internalType": "uint256",
          "name": "value",
          "type": "uint256"
        }
      ],
      "name": "transfer",
      "outputs": [
        {
          "internalType": "bool",
          "name": "",
          "type": "bool"
        }
      ],
      "stateMutability": "nonpayable",
      "type": "function"
    },
    {
      "inputs": [
        {
          "internalType": "address",
          "name": "from",
          "type": "address"
        },
        {
          "internalType": "address",
          "name": "to",
          "type": "address"
        },
        {
          "internalType": "uint256",
          "name": "value",
          "type": "uint256"
        }
      ],
      "name": "transferFrom",
      "outputs": [
        {
          "internalType": "bool",
          "name": "",
          "type": "bool"
        }
      ],
      "stateMutability": "nonpayable",
      "type": "function"
    },
    {
      "inputs": [],
      "name": "unpause",
      "outputs": [],
      "stateMutability": "nonpayable",
      "type": "function"
    }
  ],
  "bytecode": "0x60806040526007805460ff19169055348015610019575f5ffd5b506040516115573803806115578339810160408190526100389161044c565b6040518060400160405280600981526020016829bab3b0b921b7b4b760b91b8152506040518060400160405280600581526020016429aaa3a0a960d91b81525081600390816100879190610510565b5060046100948282610510565b506100a391505f905082610123565b506100ce7f65d7a28e3265b37a6474929f336521b332c1681b933f6cb9f3376673440d862a82610123565b506100f97f8502233096d909befbda0999bb8ea2f3a6be3c138b9fbf003752a4c8bce86f6c82610123565b5061011d8161010a6012600a6106c1565b61011890630bebc2006106cf565b6101d0565b506106f9565b5f8281526006602090815260408083206001600160a01b038516845290915281205460ff166101c7575f8381526006602090815260408083206001600160a01b03861684529091529020805460ff1916600117905561017f3390565b6001600160a01b0316826001600160a01b0316847f2f8788117e7eff1d82e926ec794901d17c78024a50270940304540a733656f0d60405160405180910390a45060016101ca565b505f5b92915050565b6001600160a01b0382166101fe5760405163ec442f0560e01b81525f60048201526024015b60405180910390fd5b6102095f838361020d565b5050565b60075460ff166102dd576001600160a01b038381165f8181525f5160206115375f395f51905f5260205260408120549115928516159160ff168061027457506001600160a01b0385165f9081525f5160206115375f395f51905f52602052604090205460ff165b905082158015610282575081155b801561028c575080155b156102d95760405162461bcd60e51b815260206004820152601d60248201527f54726164696e672069732063757272656e746c792064697361626c656400000060448201526064016101f5565b5050505b6102e88383836102ed565b505050565b6102f5610300565b6102e8838383610326565b60055460ff16156103245760405163d93c066560e01b815260040160405180910390fd5b565b6001600160a01b038316610350578060025f82825461034591906106e6565b909155506103c09050565b6001600160a01b0383165f90815260208190526040902054818110156103a25760405163391434e360e21b81526001600160a01b038516600482015260248101829052604481018390526064016101f5565b6001600160a01b0384165f9081526020819052604090209082900390555b6001600160a01b0382166103dc576002805482900390556103fa565b6001600160a01b0382165f9081526020819052604090208054820190555b816001600160a01b0316836001600160a01b03167fddf252ad1be2c89b69c2b068fc378daa952ba7f163c4a11628f55a4df523b3ef8360405161043f91815260200190565b60405180910390a3505050565b5f6020828403121561045c575f5ffd5b81516001600160a01b0381168114610472575f5ffd5b9392505050565b634e487b7160e01b5f52604160045260245ffd5b600181811c908216806104a157607f821691505b6020821081036104bf57634e487b7160e01b5f52602260045260245ffd5b50919050565b601f8211156102e857805f5260205f20601f840160051c810160208510156104ea5750805b601f840160051c820191505b81811015610509575f81556001016104f6565b5050505050565b81516001600160401b0381111561052957610529610479565b61053d81610537845461048d565b846104c5565b6020601f82116001811461056f575f83156105585750848201515b5f19600385901b1c1916600184901b178455610509565b5f84815260208120601f198516915b8281101561059e578785015182556020948501946001909201910161057e565b50848210156105bb57868401515f19600387901b60f8161c191681555b50505050600190811b01905550565b634e487b7160e01b5f52601160045260245ffd5b6001815b6001841115610619578085048111156105fd576105fd6105ca565b600184161561060b57908102905b60019390931c9280026105e2565b935093915050565b5f8261062f575060016101ca565b8161063b57505f6101ca565b8160018114610651576002811461065b57610677565b60019150506101ca565b60ff84111561066c5761066c6105ca565b50506001821b6101ca565b5060208310610133831016604e8410600b841016171561069a575081810a6101ca565b6106a65f1984846105de565b805f19048211156106b9576106b96105ca565b029392505050565b5f61047260ff841683610621565b80820281158282048414176101ca576101ca6105ca565b808201808211156101ca576101ca6105ca565b610e31806107065f395ff3fe608060405234801561000f575f5ffd5b506004361061016d575f3560e01c80634ada218b116100d957806391d1485411610093578063a9059cbb1161006e578063a9059cbb14610306578063d547741f14610319578063dd62ed3e1461032c578063e63ab1e914610364575f5ffd5b806391d14854146102e457806395d89b41146102f7578063a217fddf146102ff575f5ffd5b80634ada218b146102815780635c975abb1461028e57806370a082311461029957806379cc6790146102c15780638456cb59146102d45780638a8c523c146102dc575f5ffd5b8063248a9ca31161012a578063248a9ca31461020d5780632f2ff15d1461022f578063313ce5671461024457806336568abe146102535780633f4ba83a1461026657806342966c681461026e575f5ffd5b806301ffc9a71461017157806306fdde0314610199578063095ea7b3146101ae57806318160ddd146101c1578063206b60f9146101d357806323b872dd146101fa575b5f5ffd5b61018461017f366004610c42565b61038b565b60405190151581526020015b60405180910390f35b6101a16103c1565b6040516101909190610c70565b6101846101bc366004610cc0565b610451565b6002545b604051908152602001610190565b6101c57f8502233096d909befbda0999bb8ea2f3a6be3c138b9fbf003752a4c8bce86f6c81565b610184610208366004610ce8565b610468565b6101c561021b366004610d22565b5f9081526006602052604090206001015490565b61024261023d366004610d39565b61048b565b005b60405160128152602001610190565b610242610261366004610d39565b6104b5565b6102426104ed565b61024261027c366004610d22565b610522565b6007546101849060ff1681565b60055460ff16610184565b6101c56102a7366004610d63565b6001600160a01b03165f9081526020819052604090205490565b6102426102cf366004610cc0565b61052c565b610242610545565b610242610577565b6101846102f2366004610d39565b6105b9565b6101a16105e3565b6101c55f81565b610184610314366004610cc0565b6105f2565b610242610327366004610d39565b6105ff565b6101c561033a366004610d7c565b6001600160a01b039182165f90815260016020908152604080832093909416825291909152205490565b6101c57f65d7a28e3265b37a6474929f336521b332c1681b933f6cb9f3376673440d862a81565b5f6001600160e01b03198216637965db0b60e01b14806103bb57506301ffc9a760e01b6001600160e01b03198316145b92915050565b6060600380546103d090610da4565b80601f01602080910402602001604051908101604052809291908181526020018280546103fc90610da4565b80156104475780601f1061041e57610100808354040283529160200191610447565b820191905f5260205f20905b81548152906001019060200180831161042a57829003601f168201915b5050505050905090565b5f3361045e818585610623565b5060019392505050565b5f33610475858285610630565b6104808585856106ab565b506001949350505050565b5f828152600660205260409020600101546104a581610708565b6104af8383610712565b50505050565b6001600160a01b03811633146104de5760405163334bd91960e11b815260040160405180910390fd5b6104e882826107a3565b505050565b7f65d7a28e3265b37a6474929f336521b332c1681b933f6cb9f3376673440d862a61051781610708565b61051f61080e565b50565b61051f3382610860565b610537823383610630565b6105418282610860565b5050565b7f65d7a28e3265b37a6474929f336521b332c1681b933f6cb9f3376673440d862a61056f81610708565b61051f610894565b5f61058181610708565b6007805460ff191660011790556040517f799663458a5ef2936f7fa0c99b3336c69c25890f82974f04e811e5bb359186c7905f90a150565b5f9182526006602090815260408084206001600160a01b0393909316845291905290205460ff1690565b6060600480546103d090610da4565b5f3361045e8185856106ab565b5f8281526006602052604090206001015461061981610708565b6104af83836107a3565b6104e883838360016108d1565b6001600160a01b038381165f908152600160209081526040808320938616835292905220545f198110156104af578181101561069d57604051637dc7a0d960e11b81526001600160a01b038416600482015260248101829052604481018390526064015b60405180910390fd5b6104af84848484035f6108d1565b6001600160a01b0383166106d457604051634b637e8f60e11b81525f6004820152602401610694565b6001600160a01b0382166106fd5760405163ec442f0560e01b81525f6004820152602401610694565b6104e88383836109a3565b61051f8133610a8c565b5f61071d83836105b9565b61079c575f8381526006602090815260408083206001600160a01b03861684529091529020805460ff191660011790556107543390565b6001600160a01b0316826001600160a01b0316847f2f8788117e7eff1d82e926ec794901d17c78024a50270940304540a733656f0d60405160405180910390a45060016103bb565b505f6103bb565b5f6107ae83836105b9565b1561079c575f8381526006602090815260408083206001600160a01b0386168085529252808320805460ff1916905551339286917ff6391f5c32d9c69d2a47ea670b442974b53935d1edc7fd64eb21e047a839171b9190a45060016103bb565b610816610ac5565b6005805460ff191690557f5db9ee0a495bf2e6ff9c91a7834c1ba4fdd244a5e8aa4e537bd38aeae4b073aa335b6040516001600160a01b03909116815260200160405180910390a1565b6001600160a01b03821661088957604051634b637e8f60e11b81525f6004820152602401610694565b610541825f836109a3565b61089c610aea565b6005805460ff191660011790557f62e78cea01bee320cd4e420270b5ea74000d11b0c9f74754ebdbfc544b05a2586108433390565b6001600160a01b0384166108fa5760405163e602df0560e01b81525f6004820152602401610694565b6001600160a01b03831661092357604051634a1406b160e11b81525f6004820152602401610694565b6001600160a01b038085165f90815260016020908152604080832093871683529290522082905580156104af57826001600160a01b0316846001600160a01b03167f8c5be1e5ebec7d5bd14f71427d1e84f3dd0314c0f7b2291e5b200ac8c7c3b9258460405161099591815260200190565b60405180910390a350505050565b60075460ff16610a81576001600160a01b0383811615908316155f6109e87f8502233096d909befbda0999bb8ea2f3a6be3c138b9fbf003752a4c8bce86f6c876105b9565b80610a185750610a187f8502233096d909befbda0999bb8ea2f3a6be3c138b9fbf003752a4c8bce86f6c866105b9565b905082158015610a26575081155b8015610a30575080155b15610a7d5760405162461bcd60e51b815260206004820152601d60248201527f54726164696e672069732063757272656e746c792064697361626c65640000006044820152606401610694565b5050505b6104e8838383610b0e565b610a9682826105b9565b6105415760405163e2517d3f60e01b81526001600160a01b038216600482015260248101839052604401610694565b60055460ff16610ae857604051638dfc202b60e01b815260040160405180910390fd5b565b60055460ff1615610ae85760405163d93c066560e01b815260040160405180910390fd5b610b16610aea565b6104e88383836001600160a01b038316610b46578060025f828254610b3b9190610ddc565b90915550610bb69050565b6001600160a01b0383165f9081526020819052604090205481811015610b985760405163391434e360e21b81526001600160a01b03851660048201526024810182905260448101839052606401610694565b6001600160a01b0384165f9081526020819052604090209082900390555b6001600160a01b038216610bd257600280548290039055610bf0565b6001600160a01b0382165f9081526020819052604090208054820190555b816001600160a01b0316836001600160a01b03167fddf252ad1be2c89b69c2b068fc378daa952ba7f163c4a11628f55a4df523b3ef83604051610c3591815260200190565b60405180910390a3505050565b5f60208284031215610c52575f5ffd5b81356001600160e01b031981168114610c69575f5ffd5b9392505050565b602081525f82518060208401528060208501604085015e5f604082850101526040601f19601f83011684010191505092915050565b80356001600160a01b0381168114610cbb575f5ffd5b919050565b5f5f60408385031215610cd1575f5ffd5b610cda83610ca5565b946020939093013593505050565b5f5f5f60608486031215610cfa575f5ffd5b610d0384610ca5565b9250610d1160208501610ca5565b929592945050506040919091013590565b5f60208284031215610d32575f5ffd5b5035919050565b5f5f60408385031215610d4a575f5ffd5b82359150610d5a60208401610ca5565b90509250929050565b5f60208284031215610d73575f5ffd5b610c6982610ca5565b5f5f60408385031215610d8d575f5ffd5b610d9683610ca5565b9150610d5a60208401610ca5565b600181811c90821680610db857607f821691505b602082108103610dd657634e487b7160e01b5f52602260045260245ffd5b50919050565b808201808211156103bb57634e487b7160e01b5f52601160045260245ffdfea2646970667358221220b80f26cc4982a278107b746da955f71008615de2306aedb7f0f367112c69a4da64736f6c634300081b003390c276c67a19c282c7de40a6de63b141616931e213f9fd4b4a9325f19a097e46",
  "linkReferences": {},
  "deployedLinkReferences": {},
  "immutableReferences": {},
  "inputSourceName": "project/contracts/sugarCoin.sol",
  "buildInfoId": "solc-0_8_27-0c33f0ac1b9c26c8e6d4334e54acb62017a2023f"
}